{
  "contractName": "ApartmentFactory",
  "abi": [
    {
      "inputs": [
        {
          "internalType": "uint256",
          "name": "_value",
          "type": "uint256"
        },
        {
          "internalType": "uint256",
          "name": "_tokenPrice",
          "type": "uint256"
        }
      ],
      "name": "createApartment",
      "outputs": [
        {
          "internalType": "contract Apartment",
          "name": "",
          "type": "address"
        }
      ],
      "stateMutability": "nonpayable",
      "type": "function"
    },
    {
      "inputs": [],
      "name": "getAllApartments",
      "outputs": [
        {
          "internalType": "contract Apartment[]",
          "name": "",
          "type": "address[]"
        }
      ],
      "stateMutability": "view",
      "type": "function"
    }
  ],
  "bytecode": "0x608060405234801561001057600080fd5b506127a0806100206000396000f3fe60806040523480156200001157600080fd5b50600436106200003a5760003560e01c80630350a970146200003f5780630397eee01462000075575b600080fd5b6200005d60048036038101906200005791906200029c565b62000097565b6040516200006c91906200036e565b60405180910390f35b6200007f62000182565b6040516200008e919062000459565b60405180910390f35b600080338484604051620000ab906200024e565b620000b993929190620004b3565b604051809103906000f080158015620000d6573d6000803e3d6000fd5b5090506000803373ffffffffffffffffffffffffffffffffffffffff1673ffffffffffffffffffffffffffffffffffffffff168152602001908152602001600020819080600181540180825580915050600190039060005260206000200160009091909190916101000a81548173ffffffffffffffffffffffffffffffffffffffff021916908373ffffffffffffffffffffffffffffffffffffffff1602179055508091505092915050565b60606000803373ffffffffffffffffffffffffffffffffffffffff1673ffffffffffffffffffffffffffffffffffffffff1681526020019081526020016000208054806020026020016040519081016040528092919081815260200182805480156200024457602002820191906000526020600020905b8160009054906101000a900473ffffffffffffffffffffffffffffffffffffffff1673ffffffffffffffffffffffffffffffffffffffff1681526020019060010190808311620001f9575b5050505050905090565b61227a80620004f183390190565b600080fd5b6000819050919050565b620002768162000261565b81146200028257600080fd5b50565b60008135905062000296816200026b565b92915050565b60008060408385031215620002b657620002b56200025c565b5b6000620002c68582860162000285565b9250506020620002d98582860162000285565b9150509250929050565b600073ffffffffffffffffffffffffffffffffffffffff82169050919050565b6000819050919050565b60006200032e620003286200032284620002e3565b62000303565b620002e3565b9050919050565b600062000342826200030d565b9050919050565b6000620003568262000335565b9050919050565b620003688162000349565b82525050565b60006020820190506200038560008301846200035d565b92915050565b600081519050919050565b600082825260208201905092915050565b6000819050602082019050919050565b620003c28162000349565b82525050565b6000620003d68383620003b7565b60208301905092915050565b6000602082019050919050565b6000620003fc826200038b565b62000408818562000396565b93506200041583620003a7565b8060005b838110156200044c578151620004308882620003c8565b97506200043d83620003e2565b92505060018101905062000419565b5085935050505092915050565b60006020820190508181036000830152620004758184620003ef565b905092915050565b60006200048a82620002e3565b9050919050565b6200049c816200047d565b82525050565b620004ad8162000261565b82525050565b6000606082019050620004ca600083018662000491565b620004d96020830185620004a2565b620004e86040830184620004a2565b94935050505056fe60806040523480156200001157600080fd5b506040516200227a3803806200227a83398181016040528101906200003791906200043c565b6040518060400160405280601181526020017f41706172746d656e74436f6e74726163740000000000000000000000000000008152506040518060400160405280600581526020017f415052544d0000000000000000000000000000000000000000000000000000008152508160039080519060200190620000bb929190620002e7565b508060049080519060200190620000d4929190620002e7565b5050508160078190555080600881905550600854600754620000f79190620004f6565b60098190555062000116836009546200016560201b6200092d1760201c565b600954600a60008573ffffffffffffffffffffffffffffffffffffffff1673ffffffffffffffffffffffffffffffffffffffff16815260200190815260200160002081905550505050620006a0565b600073ffffffffffffffffffffffffffffffffffffffff168273ffffffffffffffffffffffffffffffffffffffff1603620001d7576040517f08c379a0000000000000000000000000000000000000000000000000000000008152600401620001ce906200058f565b60405180910390fd5b620001eb60008383620002dd60201b60201c565b8060026000828254620001ff9190620005b1565b92505081905550806000808473ffffffffffffffffffffffffffffffffffffffff1673ffffffffffffffffffffffffffffffffffffffff1681526020019081526020016000206000828254620002569190620005b1565b925050819055508173ffffffffffffffffffffffffffffffffffffffff16600073ffffffffffffffffffffffffffffffffffffffff167fddf252ad1be2c89b69c2b068fc378daa952ba7f163c4a11628f55a4df523b3ef83604051620002bd91906200061f565b60405180910390a3620002d960008383620002e260201b60201c565b5050565b505050565b505050565b828054620002f5906200066b565b90600052602060002090601f01602090048101928262000319576000855562000365565b82601f106200033457805160ff191683800117855562000365565b8280016001018555821562000365579182015b828111156200036457825182559160200191906001019062000347565b5b50905062000374919062000378565b5090565b5b808211156200039357600081600090555060010162000379565b5090565b600080fd5b600073ffffffffffffffffffffffffffffffffffffffff82169050919050565b6000620003c9826200039c565b9050919050565b620003db81620003bc565b8114620003e757600080fd5b50565b600081519050620003fb81620003d0565b92915050565b6000819050919050565b620004168162000401565b81146200042257600080fd5b50565b60008151905062000436816200040b565b92915050565b60008060006060848603121562000458576200045762000397565b5b60006200046886828701620003ea565b93505060206200047b8682870162000425565b92505060406200048e8682870162000425565b9150509250925092565b7f4e487b7100000000000000000000000000000000000000000000000000000000600052601260045260246000fd5b7f4e487b7100000000000000000000000000000000000000000000000000000000600052601160045260246000fd5b6000620005038262000401565b9150620005108362000401565b92508262000523576200052262000498565b5b828204905092915050565b600082825260208201905092915050565b7f45524332303a206d696e7420746f20746865207a65726f206164647265737300600082015250565b600062000577601f836200052e565b915062000584826200053f565b602082019050919050565b60006020820190508181036000830152620005aa8162000568565b9050919050565b6000620005be8262000401565b9150620005cb8362000401565b9250827fffffffffffffffffffffffffffffffffffffffffffffffffffffffffffffffff03821115620006035762000602620004c7565b5b828201905092915050565b620006198162000401565b82525050565b60006020820190506200063660008301846200060e565b92915050565b7f4e487b7100000000000000000000000000000000000000000000000000000000600052602260045260246000fd5b600060028204905060018216806200068457607f821691505b6020821081036200069a57620006996200063c565b5b50919050565b611bca80620006b06000396000f3fe60806040526004361061010d5760003560e01c806370a0823111610095578063a457c2d711610064578063a457c2d7146103ad578063a9059cbb146103ea578063b69ef8a814610427578063c8d9cb4b14610452578063dd62ed3e1461048f57610145565b806370a08231146102ef5780637ff9b5961461032c5780638e499bcf1461035757806395d89b411461038257610145565b8063313ce567116100dc578063313ce5671461021a57806339509351146102455780633ccfd60b146102825780633fa4f24514610299578063522577e9146102c457610145565b806306fdde031461014a578063095ea7b31461017557806318160ddd146101b257806323b872dd146101dd57610145565b366101455734600560008282546101249190611187565b92505081905550346006600082825461013d9190611187565b925050819055005b600080fd5b34801561015657600080fd5b5061015f6104cc565b60405161016c9190611276565b60405180910390f35b34801561018157600080fd5b5061019c60048036038101906101979190611327565b61055e565b6040516101a99190611382565b60405180910390f35b3480156101be57600080fd5b506101c7610581565b6040516101d491906113ac565b60405180910390f35b3480156101e957600080fd5b5061020460048036038101906101ff91906113c7565b61058b565b6040516102119190611382565b60405180910390f35b34801561022657600080fd5b5061022f6105ba565b60405161023c9190611436565b60405180910390f35b34801561025157600080fd5b5061026c60048036038101906102679190611327565b6105c3565b6040516102799190611382565b60405180910390f35b34801561028e57600080fd5b506102976105fa565b005b3480156102a557600080fd5b506102ae610605565b6040516102bb91906113ac565b60405180910390f35b3480156102d057600080fd5b506102d961060b565b6040516102e691906113ac565b60405180910390f35b3480156102fb57600080fd5b5061031660048036038101906103119190611451565b610611565b60405161032391906113ac565b60405180910390f35b34801561033857600080fd5b50610341610659565b60405161034e91906113ac565b60405180910390f35b34801561036357600080fd5b5061036c61065f565b60405161037991906113ac565b60405180910390f35b34801561038e57600080fd5b50610397610665565b6040516103a49190611276565b60405180910390f35b3480156103b957600080fd5b506103d460048036038101906103cf9190611327565b6106f7565b6040516103e19190611382565b60405180910390f35b3480156103f657600080fd5b50610411600480360381019061040c9190611327565b61076e565b60405161041e9190611382565b60405180910390f35b34801561043357600080fd5b5061043c6107ba565b60405161044991906113ac565b60405180910390f35b34801561045e57600080fd5b5061047960048036038101906104749190611451565b6107c0565b60405161048691906113ac565b60405180910390f35b34801561049b57600080fd5b506104b660048036038101906104b1919061147e565b6108a6565b6040516104c391906113ac565b60405180910390f35b6060600380546104db906114ed565b80601f0160208091040260200160405190810160405280929190818152602001828054610507906114ed565b80156105545780601f1061052957610100808354040283529160200191610554565b820191906000526020600020905b81548152906001019060200180831161053757829003601f168201915b5050505050905090565b600080610569610a8c565b9050610576818585610a94565b600191505092915050565b6000600254905090565b600080610596610a8c565b90506105a3858285610c5d565b6105ae858585610ce9565b60019150509392505050565b60006012905090565b6000806105ce610a8c565b90506105ef8185856105e085896108a6565b6105ea9190611187565b610a94565b600191505092915050565b61060333610f68565b565b60075481565b60065481565b60008060008373ffffffffffffffffffffffffffffffffffffffff1673ffffffffffffffffffffffffffffffffffffffff168152602001908152602001600020549050919050565b60085481565b60095481565b606060048054610674906114ed565b80601f01602080910402602001604051908101604052809291908181526020018280546106a0906114ed565b80156106ed5780601f106106c2576101008083540402835291602001916106ed565b820191906000526020600020905b8154815290600101906020018083116106d057829003601f168201915b5050505050905090565b600080610702610a8c565b9050600061071082866108a6565b905083811015610755576040517f08c379a000000000000000000000000000000000000000000000000000000000815260040161074c90611590565b60405180910390fd5b6107628286868403610a94565b60019250505092915050565b60008061077a846107c0565b111561078a5761078983610f68565b5b6000610795336107c0565b11156107a5576107a433610f68565b5b6107af8383611121565b506001905092915050565b60055481565b600060643073ffffffffffffffffffffffffffffffffffffffff166370a08231846040518263ffffffff1660e01b81526004016107fd91906115bf565b602060405180830381865afa15801561081a573d6000803e3d6000fd5b505050506040513d601f19601f8201168201806040525081019061083e91906115ef565b600b60008573ffffffffffffffffffffffffffffffffffffffff1673ffffffffffffffffffffffffffffffffffffffff1681526020019081526020016000205460065461088b919061161c565b6108959190611650565b61089f91906116d9565b9050919050565b6000600160008473ffffffffffffffffffffffffffffffffffffffff1673ffffffffffffffffffffffffffffffffffffffff16815260200190815260200160002060008373ffffffffffffffffffffffffffffffffffffffff1673ffffffffffffffffffffffffffffffffffffffff16815260200190815260200160002054905092915050565b600073ffffffffffffffffffffffffffffffffffffffff168273ffffffffffffffffffffffffffffffffffffffff160361099c576040517f08c379a000000000000000000000000000000000000000000000000000000000815260040161099390611756565b60405180910390fd5b6109a860008383611144565b80600260008282546109ba9190611187565b92505081905550806000808473ffffffffffffffffffffffffffffffffffffffff1673ffffffffffffffffffffffffffffffffffffffff1681526020019081526020016000206000828254610a0f9190611187565b925050819055508173ffffffffffffffffffffffffffffffffffffffff16600073ffffffffffffffffffffffffffffffffffffffff167fddf252ad1be2c89b69c2b068fc378daa952ba7f163c4a11628f55a4df523b3ef83604051610a7491906113ac565b60405180910390a3610a8860008383611149565b5050565b600033905090565b600073ffffffffffffffffffffffffffffffffffffffff168373ffffffffffffffffffffffffffffffffffffffff1603610b03576040517f08c379a0000000000000000000000000000000000000000000000000000000008152600401610afa906117e8565b60405180910390fd5b600073ffffffffffffffffffffffffffffffffffffffff168273ffffffffffffffffffffffffffffffffffffffff1603610b72576040517f08c379a0000000000000000000000000000000000000000000000000000000008152600401610b699061187a565b60405180910390fd5b80600160008573ffffffffffffffffffffffffffffffffffffffff1673ffffffffffffffffffffffffffffffffffffffff16815260200190815260200160002060008473ffffffffffffffffffffffffffffffffffffffff1673ffffffffffffffffffffffffffffffffffffffff168152602001908152602001600020819055508173ffffffffffffffffffffffffffffffffffffffff168373ffffffffffffffffffffffffffffffffffffffff167f8c5be1e5ebec7d5bd14f71427d1e84f3dd0314c0f7b2291e5b200ac8c7c3b92583604051610c5091906113ac565b60405180910390a3505050565b6000610c6984846108a6565b90507fffffffffffffffffffffffffffffffffffffffffffffffffffffffffffffffff8114610ce35781811015610cd5576040517f08c379a0000000000000000000000000000000000000000000000000000000008152600401610ccc906118e6565b60405180910390fd5b610ce28484848403610a94565b5b50505050565b600073ffffffffffffffffffffffffffffffffffffffff168373ffffffffffffffffffffffffffffffffffffffff1603610d58576040517f08c379a0000000000000000000000000000000000000000000000000000000008152600401610d4f90611978565b60405180910390fd5b600073ffffffffffffffffffffffffffffffffffffffff168273ffffffffffffffffffffffffffffffffffffffff1603610dc7576040517f08c379a0000000000000000000000000000000000000000000000000000000008152600401610dbe90611a0a565b60405180910390fd5b610dd2838383611144565b60008060008573ffffffffffffffffffffffffffffffffffffffff1673ffffffffffffffffffffffffffffffffffffffff16815260200190815260200160002054905081811015610e58576040517f08c379a0000000000000000000000000000000000000000000000000000000008152600401610e4f90611a9c565b60405180910390fd5b8181036000808673ffffffffffffffffffffffffffffffffffffffff1673ffffffffffffffffffffffffffffffffffffffff16815260200190815260200160002081905550816000808573ffffffffffffffffffffffffffffffffffffffff1673ffffffffffffffffffffffffffffffffffffffff1681526020019081526020016000206000828254610eeb9190611187565b925050819055508273ffffffffffffffffffffffffffffffffffffffff168473ffffffffffffffffffffffffffffffffffffffff167fddf252ad1be2c89b69c2b068fc378daa952ba7f163c4a11628f55a4df523b3ef84604051610f4f91906113ac565b60405180910390a3610f62848484611149565b50505050565b60003073ffffffffffffffffffffffffffffffffffffffff166370a08231836040518263ffffffff1660e01b8152600401610fa391906115bf565b602060405180830381865afa158015610fc0573d6000803e3d6000fd5b505050506040513d601f19601f82011682018060405250810190610fe491906115ef565b11611024576040517f08c379a000000000000000000000000000000000000000000000000000000000815260040161101b90611b08565b60405180910390fd5b600061102f826107c0565b1161106f576040517f08c379a000000000000000000000000000000000000000000000000000000000815260040161106690611b74565b60405180910390fd5b600061107a826107c0565b90508060055461108a919061161c565b600581905550600654600b60008473ffffffffffffffffffffffffffffffffffffffff1673ffffffffffffffffffffffffffffffffffffffff168152602001908152602001600020819055508173ffffffffffffffffffffffffffffffffffffffff166108fc829081150290604051600060405180830381858888f1935050505015801561111c573d6000803e3d6000fd5b505050565b60008061112c610a8c565b9050611139818585610ce9565b600191505092915050565b505050565b505050565b6000819050919050565b7f4e487b7100000000000000000000000000000000000000000000000000000000600052601160045260246000fd5b60006111928261114e565b915061119d8361114e565b9250827fffffffffffffffffffffffffffffffffffffffffffffffffffffffffffffffff038211156111d2576111d1611158565b5b828201905092915050565b600081519050919050565b600082825260208201905092915050565b60005b838110156112175780820151818401526020810190506111fc565b83811115611226576000848401525b50505050565b6000601f19601f8301169050919050565b6000611248826111dd565b61125281856111e8565b93506112628185602086016111f9565b61126b8161122c565b840191505092915050565b60006020820190508181036000830152611290818461123d565b905092915050565b600080fd5b600073ffffffffffffffffffffffffffffffffffffffff82169050919050565b60006112c88261129d565b9050919050565b6112d8816112bd565b81146112e357600080fd5b50565b6000813590506112f5816112cf565b92915050565b6113048161114e565b811461130f57600080fd5b50565b600081359050611321816112fb565b92915050565b6000806040838503121561133e5761133d611298565b5b600061134c858286016112e6565b925050602061135d85828601611312565b9150509250929050565b60008115159050919050565b61137c81611367565b82525050565b60006020820190506113976000830184611373565b92915050565b6113a68161114e565b82525050565b60006020820190506113c1600083018461139d565b92915050565b6000806000606084860312156113e0576113df611298565b5b60006113ee868287016112e6565b93505060206113ff868287016112e6565b925050604061141086828701611312565b9150509250925092565b600060ff82169050919050565b6114308161141a565b82525050565b600060208201905061144b6000830184611427565b92915050565b60006020828403121561146757611466611298565b5b6000611475848285016112e6565b91505092915050565b6000806040838503121561149557611494611298565b5b60006114a3858286016112e6565b92505060206114b4858286016112e6565b9150509250929050565b7f4e487b7100000000000000000000000000000000000000000000000000000000600052602260045260246000fd5b6000600282049050600182168061150557607f821691505b602082108103611518576115176114be565b5b50919050565b7f45524332303a2064656372656173656420616c6c6f77616e63652062656c6f7760008201527f207a65726f000000000000000000000000000000000000000000000000000000602082015250565b600061157a6025836111e8565b91506115858261151e565b604082019050919050565b600060208201905081810360008301526115a98161156d565b9050919050565b6115b9816112bd565b82525050565b60006020820190506115d460008301846115b0565b92915050565b6000815190506115e9816112fb565b92915050565b60006020828403121561160557611604611298565b5b6000611613848285016115da565b91505092915050565b60006116278261114e565b91506116328361114e565b92508282101561164557611644611158565b5b828203905092915050565b600061165b8261114e565b91506116668361114e565b9250817fffffffffffffffffffffffffffffffffffffffffffffffffffffffffffffffff048311821515161561169f5761169e611158565b5b828202905092915050565b7f4e487b7100000000000000000000000000000000000000000000000000000000600052601260045260246000fd5b60006116e48261114e565b91506116ef8361114e565b9250826116ff576116fe6116aa565b5b828204905092915050565b7f45524332303a206d696e7420746f20746865207a65726f206164647265737300600082015250565b6000611740601f836111e8565b915061174b8261170a565b602082019050919050565b6000602082019050818103600083015261176f81611733565b9050919050565b7f45524332303a20617070726f76652066726f6d20746865207a65726f2061646460008201527f7265737300000000000000000000000000000000000000000000000000000000602082015250565b60006117d26024836111e8565b91506117dd82611776565b604082019050919050565b60006020820190508181036000830152611801816117c5565b9050919050565b7f45524332303a20617070726f766520746f20746865207a65726f20616464726560008201527f7373000000000000000000000000000000000000000000000000000000000000602082015250565b60006118646022836111e8565b915061186f82611808565b604082019050919050565b6000602082019050818103600083015261189381611857565b9050919050565b7f45524332303a20696e73756666696369656e7420616c6c6f77616e6365000000600082015250565b60006118d0601d836111e8565b91506118db8261189a565b602082019050919050565b600060208201905081810360008301526118ff816118c3565b9050919050565b7f45524332303a207472616e736665722066726f6d20746865207a65726f20616460008201527f6472657373000000000000000000000000000000000000000000000000000000602082015250565b60006119626025836111e8565b915061196d82611906565b604082019050919050565b6000602082019050818103600083015261199181611955565b9050919050565b7f45524332303a207472616e7366657220746f20746865207a65726f206164647260008201527f6573730000000000000000000000000000000000000000000000000000000000602082015250565b60006119f46023836111e8565b91506119ff82611998565b604082019050919050565b60006020820190508181036000830152611a23816119e7565b9050919050565b7f45524332303a207472616e7366657220616d6f756e742065786365656473206260008201527f616c616e63650000000000000000000000000000000000000000000000000000602082015250565b6000611a866026836111e8565b9150611a9182611a2a565b604082019050919050565b60006020820190508181036000830152611ab581611a79565b9050919050565b7f756e617574686f72697a65640000000000000000000000000000000000000000600082015250565b6000611af2600c836111e8565b9150611afd82611abc565b602082019050919050565b60006020820190508181036000830152611b2181611ae5565b9050919050565b7f302066756e647320746f20776974686472617700000000000000000000000000600082015250565b6000611b5e6013836111e8565b9150611b6982611b28565b602082019050919050565b60006020820190508181036000830152611b8d81611b51565b905091905056fea26469706673582212209950f691b5d17fbf0a3473eb851228180fa26d551d53641329ad0109a941acc364736f6c634300080d0033a2646970667358221220ec096f64cb705e9f7b5d951f3f3276566186931eb355ef8499f4f8ee350b3b8c64736f6c634300080d0033",
  "immutableReferences": {},
  "source": "pragma solidity ^0.8.0;\n\n// import \"hardhat/console.sol\";\nimport \"@openzeppelin/contracts/token/ERC20/ERC20.sol\";\n\ncontract ApartmentFactory {\n    mapping(address => Apartment[]) apartments;\n\n    function createApartment(uint _value, uint _tokenPrice) public returns (Apartment) {\n        Apartment newApartment = new Apartment(msg.sender, _value, _tokenPrice);\n        apartments[msg.sender].push(newApartment);\n        return newApartment;\n    }\n\n    function getAllApartments() public view returns (Apartment[] memory) {\n        return apartments[msg.sender];\n    }\n}\n\ncontract Apartment is ERC20 {\n    uint public balance;\n    uint public totalIncome;\n    uint public value;\n    uint public tokenPrice;\n    uint public numTokens;\n    mapping(address => uint) shareholders;\n    mapping(address => uint) withdrawRegister;\n\n    constructor(address _owner, uint _value, uint _tokenPrice) ERC20(\"ApartmentContract\", \"APRTM\") {\n        // console.log(\"Calling constructor of Apartment!\");\n        value = _value;\n        tokenPrice = _tokenPrice;\n        numTokens = value / tokenPrice;\n        super._mint(_owner, numTokens);\n        shareholders[_owner] = numTokens;\n    }\n\n    function transfer(address recipient, uint amount)\n        public\n        virtual\n        override\n        returns (bool)\n    {\n        if(getFundsToWithdraw(recipient) > 0){\n            // console.log(getFundsToWithdraw(recipient));\n            withdraw(recipient); \n        }\n        if(getFundsToWithdraw(msg.sender) > 0){\n            withdraw(msg.sender); \n        }\n\n        super.transfer(recipient, amount);\n        return true;\n    }\n\n    function withdraw(address recipient) private {\n        require(this.balanceOf(recipient) > 0, \"unauthorized\");\n        require(getFundsToWithdraw(recipient) > 0,\n            \"0 funds to withdraw\"\n        );\n        uint fundsToWithdraw = getFundsToWithdraw(recipient);\n        balance = balance - fundsToWithdraw;\n        withdrawRegister[recipient] = totalIncome;\n        payable(recipient).transfer(fundsToWithdraw);\n    }\n    \n    function withdraw() public {\n        withdraw(msg.sender);\n    }\n\n    function getFundsToWithdraw(address recipient) public view returns(uint){\n        return (totalIncome -\n            withdrawRegister[recipient]) * this.balanceOf(recipient) / 100;\n    }\n\n    receive() external payable {\n        // console.log(\"receive\");\n        balance += msg.value;\n        totalIncome += msg.value;\n    }\n}\n\n",
  "sourcePath": "/Users/prince/Documents/dapp/pet-shop-tutorial/contracts/ApartmentFactory.sol",
  "compiler": {
    "name": "solc",
    "version": "0.8.13+commit.abaa5c0e.Emscripten.clang"
  },
  "schemaVersion": "3.4.7",
  "updatedAt": "2022-05-13T00:23:00.867Z",
  "devdoc": {
    "kind": "dev",
    "methods": {},
    "version": 1
  },
  "userdoc": {
    "kind": "user",
    "methods": {},
    "version": 1
  }
}